{
	"lession1/SimpleStorage.sol": {
		"SimpleStroage": {
			"abi": [
				{
					"inputs": [],
					"name": "favNumber",
					"outputs": [
						{
							"internalType": "uint256",
							"name": "",
							"type": "uint256"
						}
					],
					"stateMutability": "view",
					"type": "function"
				},
				{
					"inputs": [
						{
							"internalType": "uint256",
							"name": "anotherNumber",
							"type": "uint256"
						}
					],
					"name": "favoriteNumber_pure",
					"outputs": [],
					"stateMutability": "pure",
					"type": "function"
				},
				{
					"inputs": [
						{
							"internalType": "uint256",
							"name": "anotherNumber",
							"type": "uint256"
						}
					],
					"name": "favoriteNumber_view",
					"outputs": [
						{
							"internalType": "uint256",
							"name": "",
							"type": "uint256"
						}
					],
					"stateMutability": "view",
					"type": "function"
				},
				{
					"inputs": [],
					"name": "retrieve_view",
					"outputs": [
						{
							"internalType": "uint256",
							"name": "",
							"type": "uint256"
						}
					],
					"stateMutability": "view",
					"type": "function"
				},
				{
					"inputs": [
						{
							"internalType": "uint256",
							"name": "_favNumber",
							"type": "uint256"
						}
					],
					"name": "store",
					"outputs": [],
					"stateMutability": "nonpayable",
					"type": "function"
				}
			],
			"devdoc": {
				"methods": {}
			},
			"evm": {
				"assembly": "    /* \"lession1/SimpleStorage.sol\":25:846  contract SimpleStroage {... */\n  mstore(0x40, 0x80)\n  callvalue\n    /* \"--CODEGEN--\":8:17   */\n  dup1\n    /* \"--CODEGEN--\":5:7   */\n  iszero\n  tag_1\n  jumpi\n    /* \"--CODEGEN--\":30:31   */\n  0x00\n    /* \"--CODEGEN--\":27:28   */\n  dup1\n    /* \"--CODEGEN--\":20:32   */\n  revert\n    /* \"--CODEGEN--\":5:7   */\ntag_1:\n    /* \"lession1/SimpleStorage.sol\":25:846  contract SimpleStroage {... */\n  pop\n  dataSize(sub_0)\n  dup1\n  dataOffset(sub_0)\n  0x00\n  codecopy\n  0x00\n  return\nstop\n\nsub_0: assembly {\n        /* \"lession1/SimpleStorage.sol\":25:846  contract SimpleStroage {... */\n      mstore(0x40, 0x80)\n      callvalue\n        /* \"--CODEGEN--\":8:17   */\n      dup1\n        /* \"--CODEGEN--\":5:7   */\n      iszero\n      tag_1\n      jumpi\n        /* \"--CODEGEN--\":30:31   */\n      0x00\n        /* \"--CODEGEN--\":27:28   */\n      dup1\n        /* \"--CODEGEN--\":20:32   */\n      revert\n        /* \"--CODEGEN--\":5:7   */\n    tag_1:\n        /* \"lession1/SimpleStorage.sol\":25:846  contract SimpleStroage {... */\n      pop\n      jumpi(tag_2, lt(calldatasize, 0x04))\n      shr(0xe0, calldataload(0x00))\n      dup1\n      0x41c020d4\n      eq\n      tag_3\n      jumpi\n      dup1\n      0x6057361d\n      eq\n      tag_4\n      jumpi\n      dup1\n      0x86bae488\n      eq\n      tag_5\n      jumpi\n      dup1\n      0x97a87198\n      eq\n      tag_6\n      jumpi\n      dup1\n      0xc7a0d9f6\n      eq\n      tag_7\n      jumpi\n    tag_2:\n      0x00\n      dup1\n      revert\n        /* \"lession1/SimpleStorage.sol\":714:844  function favoriteNumber_view(uint256 anotherNumber) public view returns(uint256) {... */\n    tag_3:\n      tag_8\n      0x04\n      dup1\n      calldatasize\n      sub\n        /* \"--CODEGEN--\":13:15   */\n      0x20\n        /* \"--CODEGEN--\":8:11   */\n      dup2\n        /* \"--CODEGEN--\":5:16   */\n      lt\n        /* \"--CODEGEN--\":2:4   */\n      iszero\n      tag_9\n      jumpi\n        /* \"--CODEGEN--\":29:30   */\n      0x00\n        /* \"--CODEGEN--\":26:27   */\n      dup1\n        /* \"--CODEGEN--\":19:31   */\n      revert\n        /* \"--CODEGEN--\":2:4   */\n    tag_9:\n        /* \"lession1/SimpleStorage.sol\":714:844  function favoriteNumber_view(uint256 anotherNumber) public view returns(uint256) {... */\n      dup2\n      add\n      swap1\n      dup1\n      dup1\n      calldataload\n      swap1\n      0x20\n      add\n      swap1\n      swap3\n      swap2\n      swap1\n      pop\n      pop\n      pop\n      tag_10\n      jump\t// in\n    tag_8:\n      mload(0x40)\n      dup1\n      dup3\n      dup2\n      mstore\n      0x20\n      add\n      swap2\n      pop\n      pop\n      mload(0x40)\n      dup1\n      swap2\n      sub\n      swap1\n      return\n        /* \"lession1/SimpleStorage.sol\":219:297  function store(uint _favNumber) public {... */\n    tag_4:\n      tag_11\n      0x04\n      dup1\n      calldatasize\n      sub\n        /* \"--CODEGEN--\":13:15   */\n      0x20\n        /* \"--CODEGEN--\":8:11   */\n      dup2\n        /* \"--CODEGEN--\":5:16   */\n      lt\n        /* \"--CODEGEN--\":2:4   */\n      iszero\n      tag_12\n      jumpi\n        /* \"--CODEGEN--\":29:30   */\n      0x00\n        /* \"--CODEGEN--\":26:27   */\n      dup1\n        /* \"--CODEGEN--\":19:31   */\n      revert\n        /* \"--CODEGEN--\":2:4   */\n    tag_12:\n        /* \"lession1/SimpleStorage.sol\":219:297  function store(uint _favNumber) public {... */\n      dup2\n      add\n      swap1\n      dup1\n      dup1\n      calldataload\n      swap1\n      0x20\n      add\n      swap1\n      swap3\n      swap2\n      swap1\n      pop\n      pop\n      pop\n      tag_13\n      jump\t// in\n    tag_11:\n      stop\n        /* \"lession1/SimpleStorage.sol\":521:631  function favoriteNumber_pure(uint256 anotherNumber) public pure {... */\n    tag_5:\n      tag_14\n      0x04\n      dup1\n      calldatasize\n      sub\n        /* \"--CODEGEN--\":13:15   */\n      0x20\n        /* \"--CODEGEN--\":8:11   */\n      dup2\n        /* \"--CODEGEN--\":5:16   */\n      lt\n        /* \"--CODEGEN--\":2:4   */\n      iszero\n      tag_15\n      jumpi\n        /* \"--CODEGEN--\":29:30   */\n      0x00\n        /* \"--CODEGEN--\":26:27   */\n      dup1\n        /* \"--CODEGEN--\":19:31   */\n      revert\n        /* \"--CODEGEN--\":2:4   */\n    tag_15:\n        /* \"lession1/SimpleStorage.sol\":521:631  function favoriteNumber_pure(uint256 anotherNumber) public pure {... */\n      dup2\n      add\n      swap1\n      dup1\n      dup1\n      calldataload\n      swap1\n      0x20\n      add\n      swap1\n      swap3\n      swap2\n      swap1\n      pop\n      pop\n      pop\n      tag_16\n      jump\t// in\n    tag_14:\n      stop\n        /* \"lession1/SimpleStorage.sol\":355:442  function retrieve_view() public view returns(uint256) {... */\n    tag_6:\n      tag_17\n      tag_18\n      jump\t// in\n    tag_17:\n      mload(0x40)\n      dup1\n      dup3\n      dup2\n      mstore\n      0x20\n      add\n      swap2\n      pop\n      pop\n      mload(0x40)\n      dup1\n      swap2\n      sub\n      swap1\n      return\n        /* \"lession1/SimpleStorage.sol\":54:78  uint256 public favNumber */\n    tag_7:\n      tag_19\n      tag_20\n      jump\t// in\n    tag_19:\n      mload(0x40)\n      dup1\n      dup3\n      dup2\n      mstore\n      0x20\n      add\n      swap2\n      pop\n      pop\n      mload(0x40)\n      dup1\n      swap2\n      sub\n      swap1\n      return\n        /* \"lession1/SimpleStorage.sol\":714:844  function favoriteNumber_view(uint256 anotherNumber) public view returns(uint256) {... */\n    tag_10:\n        /* \"lession1/SimpleStorage.sol\":786:793  uint256 */\n      0x00\n        /* \"lession1/SimpleStorage.sol\":828:837  favNumber */\n      dup1\n      sload\n        /* \"lession1/SimpleStorage.sol\":812:825  anotherNumber */\n      dup3\n        /* \"lession1/SimpleStorage.sol\":812:837  anotherNumber + favNumber */\n      add\n        /* \"lession1/SimpleStorage.sol\":805:837  return anotherNumber + favNumber */\n      swap1\n      pop\n        /* \"lession1/SimpleStorage.sol\":714:844  function favoriteNumber_view(uint256 anotherNumber) public view returns(uint256) {... */\n      swap2\n      swap1\n      pop\n      jump\t// out\n        /* \"lession1/SimpleStorage.sol\":219:297  function store(uint _favNumber) public {... */\n    tag_13:\n        /* \"lession1/SimpleStorage.sol\":280:290  _favNumber */\n      dup1\n        /* \"lession1/SimpleStorage.sol\":268:277  favNumber */\n      0x00\n        /* \"lession1/SimpleStorage.sol\":268:290  favNumber = _favNumber */\n      dup2\n      swap1\n      sstore\n      pop\n        /* \"lession1/SimpleStorage.sol\":219:297  function store(uint _favNumber) public {... */\n      pop\n      jump\t// out\n        /* \"lession1/SimpleStorage.sol\":521:631  function favoriteNumber_pure(uint256 anotherNumber) public pure {... */\n    tag_16:\n      pop\n      jump\t// out\n        /* \"lession1/SimpleStorage.sol\":355:442  function retrieve_view() public view returns(uint256) {... */\n    tag_18:\n        /* \"lession1/SimpleStorage.sol\":400:407  uint256 */\n      0x00\n        /* \"lession1/SimpleStorage.sol\":426:435  favNumber */\n      dup1\n      sload\n        /* \"lession1/SimpleStorage.sol\":419:435  return favNumber */\n      swap1\n      pop\n        /* \"lession1/SimpleStorage.sol\":355:442  function retrieve_view() public view returns(uint256) {... */\n      swap1\n      jump\t// out\n        /* \"lession1/SimpleStorage.sol\":54:78  uint256 public favNumber */\n    tag_20:\n      sload(0x00)\n      dup2\n      jump\t// out\n\n    auxdata: 0xa26469706673582212204b033b840e45fc97923f71f52e9a7f2016a91c3d27770c3b7e565fb9f6a8a10464736f6c63430006000033\n}\n",
				"bytecode": {
					"linkReferences": {},
					"object": "608060405234801561001057600080fd5b50610195806100206000396000f3fe608060405234801561001057600080fd5b50600436106100575760003560e01c806341c020d41461005c5780636057361d1461009e57806386bae488146100cc57806397a87198146100fa578063c7a0d9f614610118575b600080fd5b6100886004803603602081101561007257600080fd5b8101908080359060200190929190505050610136565b6040518082815260200191505060405180910390f35b6100ca600480360360208110156100b457600080fd5b8101908080359060200190929190505050610143565b005b6100f8600480360360208110156100e257600080fd5b810190808035906020019092919050505061014d565b005b610102610150565b6040518082815260200191505060405180910390f35b610120610159565b6040518082815260200191505060405180910390f35b6000805482019050919050565b8060008190555050565b50565b60008054905090565b6000548156fea26469706673582212204b033b840e45fc97923f71f52e9a7f2016a91c3d27770c3b7e565fb9f6a8a10464736f6c63430006000033",
					"opcodes": "PUSH1 0x80 PUSH1 0x40 MSTORE CALLVALUE DUP1 ISZERO PUSH2 0x10 JUMPI PUSH1 0x0 DUP1 REVERT JUMPDEST POP PUSH2 0x195 DUP1 PUSH2 0x20 PUSH1 0x0 CODECOPY PUSH1 0x0 RETURN INVALID PUSH1 0x80 PUSH1 0x40 MSTORE CALLVALUE DUP1 ISZERO PUSH2 0x10 JUMPI PUSH1 0x0 DUP1 REVERT JUMPDEST POP PUSH1 0x4 CALLDATASIZE LT PUSH2 0x57 JUMPI PUSH1 0x0 CALLDATALOAD PUSH1 0xE0 SHR DUP1 PUSH4 0x41C020D4 EQ PUSH2 0x5C JUMPI DUP1 PUSH4 0x6057361D EQ PUSH2 0x9E JUMPI DUP1 PUSH4 0x86BAE488 EQ PUSH2 0xCC JUMPI DUP1 PUSH4 0x97A87198 EQ PUSH2 0xFA JUMPI DUP1 PUSH4 0xC7A0D9F6 EQ PUSH2 0x118 JUMPI JUMPDEST PUSH1 0x0 DUP1 REVERT JUMPDEST PUSH2 0x88 PUSH1 0x4 DUP1 CALLDATASIZE SUB PUSH1 0x20 DUP2 LT ISZERO PUSH2 0x72 JUMPI PUSH1 0x0 DUP1 REVERT JUMPDEST DUP2 ADD SWAP1 DUP1 DUP1 CALLDATALOAD SWAP1 PUSH1 0x20 ADD SWAP1 SWAP3 SWAP2 SWAP1 POP POP POP PUSH2 0x136 JUMP JUMPDEST PUSH1 0x40 MLOAD DUP1 DUP3 DUP2 MSTORE PUSH1 0x20 ADD SWAP2 POP POP PUSH1 0x40 MLOAD DUP1 SWAP2 SUB SWAP1 RETURN JUMPDEST PUSH2 0xCA PUSH1 0x4 DUP1 CALLDATASIZE SUB PUSH1 0x20 DUP2 LT ISZERO PUSH2 0xB4 JUMPI PUSH1 0x0 DUP1 REVERT JUMPDEST DUP2 ADD SWAP1 DUP1 DUP1 CALLDATALOAD SWAP1 PUSH1 0x20 ADD SWAP1 SWAP3 SWAP2 SWAP1 POP POP POP PUSH2 0x143 JUMP JUMPDEST STOP JUMPDEST PUSH2 0xF8 PUSH1 0x4 DUP1 CALLDATASIZE SUB PUSH1 0x20 DUP2 LT ISZERO PUSH2 0xE2 JUMPI PUSH1 0x0 DUP1 REVERT JUMPDEST DUP2 ADD SWAP1 DUP1 DUP1 CALLDATALOAD SWAP1 PUSH1 0x20 ADD SWAP1 SWAP3 SWAP2 SWAP1 POP POP POP PUSH2 0x14D JUMP JUMPDEST STOP JUMPDEST PUSH2 0x102 PUSH2 0x150 JUMP JUMPDEST PUSH1 0x40 MLOAD DUP1 DUP3 DUP2 MSTORE PUSH1 0x20 ADD SWAP2 POP POP PUSH1 0x40 MLOAD DUP1 SWAP2 SUB SWAP1 RETURN JUMPDEST PUSH2 0x120 PUSH2 0x159 JUMP JUMPDEST PUSH1 0x40 MLOAD DUP1 DUP3 DUP2 MSTORE PUSH1 0x20 ADD SWAP2 POP POP PUSH1 0x40 MLOAD DUP1 SWAP2 SUB SWAP1 RETURN JUMPDEST PUSH1 0x0 DUP1 SLOAD DUP3 ADD SWAP1 POP SWAP2 SWAP1 POP JUMP JUMPDEST DUP1 PUSH1 0x0 DUP2 SWAP1 SSTORE POP POP JUMP JUMPDEST POP JUMP JUMPDEST PUSH1 0x0 DUP1 SLOAD SWAP1 POP SWAP1 JUMP JUMPDEST PUSH1 0x0 SLOAD DUP2 JUMP INVALID LOG2 PUSH5 0x6970667358 0x22 SLT KECCAK256 0x4B SUB EXTCODESIZE DUP5 0xE GASLIMIT 0xFC SWAP8 SWAP3 EXTCODEHASH PUSH18 0xF52E9A7F2016A91C3D27770C3B7E565FB9F6 0xA8 LOG1 DIV PUSH5 0x736F6C6343 STOP MOD STOP STOP CALLER "
				},
				"gasEstimates": {
					"creation": {
						"codeDepositCost": "81000",
						"executionCost": "129",
						"totalCost": "81129"
					},
					"external": {
						"favNumber()": "1071",
						"favoriteNumber_pure(uint256)": "250",
						"favoriteNumber_view(uint256)": "1084",
						"retrieve_view()": "1057",
						"store(uint256)": "20242"
					}
				},
				"methodIdentifiers": {
					"favNumber()": "c7a0d9f6",
					"favoriteNumber_pure(uint256)": "86bae488",
					"favoriteNumber_view(uint256)": "41c020d4",
					"retrieve_view()": "97a87198",
					"store(uint256)": "6057361d"
				}
			},
			"storageLayout": {
				"storage": [
					{
						"astId": 3,
						"contract": "lession1/SimpleStorage.sol:SimpleStroage",
						"label": "favNumber",
						"offset": 0,
						"slot": "0",
						"type": "t_uint256"
					}
				],
				"types": {
					"t_uint256": {
						"encoding": "inplace",
						"label": "uint256",
						"numberOfBytes": "32"
					}
				}
			},
			"userdoc": {
				"methods": {}
			}
		}
	}
}